{
  "contractName": "BaseContract",
  "abi": [
    {
      "constant": true,
      "inputs": [],
      "name": "contract_version",
      "outputs": [
        {
          "name": "",
          "type": "uint256"
        }
      ],
      "payable": false,
      "stateMutability": "view",
      "type": "function"
    },
    {
      "constant": true,
      "inputs": [],
      "name": "contract_name",
      "outputs": [
        {
          "name": "",
          "type": "string"
        }
      ],
      "payable": false,
      "stateMutability": "view",
      "type": "function"
    }
  ],
  "bytecode": "0x608060405234801561001057600080fd5b506101dc806100206000396000f30060806040526004361061004c576000357c0100000000000000000000000000000000000000000000000000000000900463ffffffff168063b32c65c814610051578063d94796921461007c575b600080fd5b34801561005d57600080fd5b5061006661010c565b6040518082815260200191505060405180910390f35b34801561008857600080fd5b50610091610112565b6040518080602001828103825283818151815260200191508051906020019080838360005b838110156100d15780820151818401526020810190506100b6565b50505050905090810190601f1680156100fe5780820380516001836020036101000a031916815260200191505b509250505060405180910390f35b60015481565b60008054600181600116156101000203166002900480601f0160208091040260200160405190810160405280929190818152602001828054600181600116156101000203166002900480156101a85780601f1061017d576101008083540402835291602001916101a8565b820191906000526020600020905b81548152906001019060200180831161018b57829003601f168201915b5050505050815600a165627a7a723058200bc5f7423c241039d249fac24fb81a7e0e9aae972016640f96ce9ac5bcc9f2f70029",
  "source": "pragma solidity ^0.4.24;\n\ncontract BaseContract {\n\tstring public contract_name;\n\tuint public contract_version;\n}",
  "sourcePath": "/home/frederic/home/p2pmoney-dev/var/lib/git/repos/solidity/ethereum_public_notices_dapp/contracts/BaseContract.sol",
  "compiler": {
    "name": "solc",
    "version": "0.4.24+commit.e67f0147.Emscripten.clang"
  },
  "schemaVersion": "2.0.0",
  "updatedAt": "2018-07-11T17:07:30.055Z"
}