{
  "contractName": "PublicNoticeBook",
  "abi": [
    {
      "constant": true,
      "inputs": [],
      "name": "owner",
      "outputs": [
        {
          "name": "",
          "type": "address"
        }
      ],
      "payable": false,
      "stateMutability": "view",
      "type": "function"
    },
    {
      "constant": true,
      "inputs": [],
      "name": "contract_version",
      "outputs": [
        {
          "name": "",
          "type": "uint256"
        }
      ],
      "payable": false,
      "stateMutability": "view",
      "type": "function"
    },
    {
      "constant": true,
      "inputs": [],
      "name": "booktitle",
      "outputs": [
        {
          "name": "",
          "type": "string"
        }
      ],
      "payable": false,
      "stateMutability": "view",
      "type": "function"
    },
    {
      "constant": true,
      "inputs": [],
      "name": "contract_name",
      "outputs": [
        {
          "name": "",
          "type": "string"
        }
      ],
      "payable": false,
      "stateMutability": "view",
      "type": "function"
    },
    {
      "inputs": [
        {
          "name": "_owner",
          "type": "address"
        },
        {
          "name": "_booktitle",
          "type": "string"
        }
      ],
      "payable": false,
      "stateMutability": "nonpayable",
      "type": "constructor"
    },
    {
      "constant": false,
      "inputs": [
        {
          "name": "_notice_type",
          "type": "string"
        },
        {
          "name": "_title",
          "type": "string"
        },
        {
          "name": "_json_content",
          "type": "string"
        },
        {
          "name": "_referenceID",
          "type": "string"
        }
      ],
      "name": "publishNotice",
      "outputs": [
        {
          "name": "_noticeindex",
          "type": "uint256"
        }
      ],
      "payable": true,
      "stateMutability": "payable",
      "type": "function"
    },
    {
      "constant": true,
      "inputs": [],
      "name": "getNoticeCount",
      "outputs": [
        {
          "name": "_count",
          "type": "uint256"
        }
      ],
      "payable": false,
      "stateMutability": "view",
      "type": "function"
    },
    {
      "constant": true,
      "inputs": [
        {
          "name": "_index",
          "type": "uint256"
        }
      ],
      "name": "getNoticeAt",
      "outputs": [
        {
          "name": "_notice_type",
          "type": "string"
        },
        {
          "name": "_title",
          "type": "string"
        },
        {
          "name": "_json_content",
          "type": "string"
        },
        {
          "name": "_referenceID",
          "type": "string"
        }
      ],
      "payable": false,
      "stateMutability": "view",
      "type": "function"
    }
  ],
  "bytecode": "0x608060405234801561001057600080fd5b50604051610dc6380380610dc683398101806040528101908080519060200190929190805182019291905050506040805190810160405280601081526020017f7075626c69636e6f74696365626f6f6b00000000000000000000000000000000815250600090805190602001906100889291906100f3565b50630133efa560018190555081600260006101000a81548173ffffffffffffffffffffffffffffffffffffffff021916908373ffffffffffffffffffffffffffffffffffffffff16021790555080600390805190602001906100eb9291906100f3565b505050610198565b828054600181600116156101000203166002900490600052602060002090601f016020900481019282601f1061013457805160ff1916838001178555610162565b82800160010185558215610162579182015b82811115610161578251825591602001919060010190610146565b5b50905061016f9190610173565b5090565b61019591905b80821115610191576000816000905550600101610179565b5090565b90565b610c1f806101a76000396000f300608060405260043610610083576000357c0100000000000000000000000000000000000000000000000000000000900463ffffffff1680630b720b84146100885780638da5cb5b146101ca57806395d50a7f14610221578063b32c65c81461024c578063c4985d0714610277578063d947969214610307578063f2c5730914610397575b600080fd5b6101b4600480360381019080803590602001908201803590602001908080601f0160208091040260200160405190810160405280939291908181526020018383808284378201915050505050509192919290803590602001908201803590602001908080601f0160208091040260200160405190810160405280939291908181526020018383808284378201915050505050509192919290803590602001908201803590602001908080601f0160208091040260200160405190810160405280939291908181526020018383808284378201915050505050509192919290803590602001908201803590602001908080601f0160208091040260200160405190810160405280939291908181526020018383808284378201915050505050509192919290505050610581565b6040518082815260200191505060405180910390f35b3480156101d657600080fd5b506101df610630565b604051808273ffffffffffffffffffffffffffffffffffffffff1673ffffffffffffffffffffffffffffffffffffffff16815260200191505060405180910390f35b34801561022d57600080fd5b50610236610656565b6040518082815260200191505060405180910390f35b34801561025857600080fd5b50610261610663565b6040518082815260200191505060405180910390f35b34801561028357600080fd5b5061028c610669565b6040518080602001828103825283818151815260200191508051906020019080838360005b838110156102cc5780820151818401526020810190506102b1565b50505050905090810190601f1680156102f95780820380516001836020036101000a031916815260200191505b509250505060405180910390f35b34801561031357600080fd5b5061031c610707565b6040518080602001828103825283818151815260200191508051906020019080838360005b8381101561035c578082015181840152602081019050610341565b50505050905090810190601f1680156103895780820380516001836020036101000a031916815260200191505b509250505060405180910390f35b3480156103a357600080fd5b506103c2600480360381019080803590602001909291905050506107a5565b6040518080602001806020018060200180602001858103855289818151815260200191508051906020019080838360005b8381101561040e5780820151818401526020810190506103f3565b50505050905090810190601f16801561043b5780820380516001836020036101000a031916815260200191505b50858103845288818151815260200191508051906020019080838360005b83811015610474578082015181840152602081019050610459565b50505050905090810190601f1680156104a15780820380516001836020036101000a031916815260200191505b50858103835287818151815260200191508051906020019080838360005b838110156104da5780820151818401526020810190506104bf565b50505050905090810190601f1680156105075780820380516001836020036101000a031916815260200191505b50858103825286818151815260200191508051906020019080838360005b83811015610540578082015181840152602081019050610525565b50505050905090810190601f16801561056d5780820380516001836020036101000a031916815260200191505b509850505050505050505060405180910390f35b600080600060048054905091506001820160048161059f9190610a75565b506004828154811015156105af57fe5b90600052602060002090600402019050868160000190805190602001906105d7929190610aa7565b50858160010190805190602001906105f0929190610aa7565b5084816002019080519060200190610609929190610aa7565b5083816003019080519060200190610622929190610aa7565b508192505050949350505050565b600260009054906101000a900473ffffffffffffffffffffffffffffffffffffffff1681565b6000600480549050905090565b60015481565b60038054600181600116156101000203166002900480601f0160208091040260200160405190810160405280929190818152602001828054600181600116156101000203166002900480156106ff5780601f106106d4576101008083540402835291602001916106ff565b820191906000526020600020905b8154815290600101906020018083116106e257829003601f168201915b505050505081565b60008054600181600116156101000203166002900480601f01602080910402602001604051908101604052809291908181526020018280546001816001161561010002031660029004801561079d5780601f106107725761010080835404028352916020019161079d565b820191906000526020600020905b81548152906001019060200180831161078057829003601f168201915b505050505081565b6060806060806000806004805490509150600087101580156107c657508187105b15156107d157600080fd5b6004878154811015156107e057fe5b90600052602060002090600402019050806000018054600181600116156101000203166002900480601f0160208091040260200160405190810160405280929190818152602001828054600181600116156101000203166002900480156108885780601f1061085d57610100808354040283529160200191610888565b820191906000526020600020905b81548152906001019060200180831161086b57829003601f168201915b50505050509550806001018054600181600116156101000203166002900480601f0160208091040260200160405190810160405280929190818152602001828054600181600116156101000203166002900480156109275780601f106108fc57610100808354040283529160200191610927565b820191906000526020600020905b81548152906001019060200180831161090a57829003601f168201915b50505050509450806002018054600181600116156101000203166002900480601f0160208091040260200160405190810160405280929190818152602001828054600181600116156101000203166002900480156109c65780601f1061099b576101008083540402835291602001916109c6565b820191906000526020600020905b8154815290600101906020018083116109a957829003601f168201915b50505050509350806003018054600181600116156101000203166002900480601f016020809104026020016040519081016040528092919081815260200182805460018160011615610100020316600290048015610a655780601f10610a3a57610100808354040283529160200191610a65565b820191906000526020600020905b815481529060010190602001808311610a4857829003601f168201915b5050505050925050509193509193565b815481835581811115610aa257600402816004028360005260206000209182019101610aa19190610b27565b5b505050565b828054600181600116156101000203166002900490600052602060002090601f016020900481019282601f10610ae857805160ff1916838001178555610b16565b82800160010185558215610b16579182015b82811115610b15578251825591602001919060010190610afa565b5b509050610b239190610b86565b5090565b610b8391905b80821115610b7f5760008082016000610b469190610bab565b600182016000610b569190610bab565b600282016000610b669190610bab565b600382016000610b769190610bab565b50600401610b2d565b5090565b90565b610ba891905b80821115610ba4576000816000905550600101610b8c565b5090565b90565b50805460018160011615610100020316600290046000825580601f10610bd15750610bf0565b601f016020900490600052602060002090810190610bef9190610b86565b5b505600a165627a7a72305820e958833846ac03969702714d977ad227f3c1879725594626d6ba394ff965bc810029",
  "source": "pragma solidity ^0.4.24;\n\ncontract PublicNoticeBook {\n\tstring public contract_name;\n\tuint public contract_version;\n\n\t// company\n\taddress public owner;\n\t\n\tstring public booktitle;\n\n\t// list of published notices\n\tNotice[] notices;\n\t\n\tstruct Notice {\n\t    string notice_type;\n\t    string title;\n\t    \n\t    string json_content;\n\t    \n\t    string referenceID;\n\t}\n\t\n\t// constructor\n\tconstructor(address _owner, string _booktitle) public {\n\t\tcontract_name = \"publicnoticebook\";\n\t\tcontract_version = 20180901;\n\t\t\n\t\towner = _owner;\n\t\tbooktitle = _booktitle;\n\t}\n\t\n\t// notices\n\tfunction publishNotice(string _notice_type, string _title, string _json_content, string _referenceID) public payable returns (uint _noticeindex) {\n\t    uint __current_number_of_notices = notices.length;\n        notices.length = __current_number_of_notices + 1;\n\t    \n        Notice storage __notice = notices[__current_number_of_notices];\n       \n        __notice.notice_type = _notice_type;\n        __notice.title = _title;\n        __notice.json_content = _json_content;\n        __notice.referenceID = _referenceID;\n       \n \t    _noticeindex = __current_number_of_notices;\n\t}\n\n\tfunction getNoticeCount() public view returns (uint _count) {\n\t    _count = notices.length;\n\t}\n\t\n\tfunction getNoticeAt(uint _index) public view returns (string _notice_type, string _title, string _json_content, string _referenceID) {\n\t    uint __current_number_of_notices = notices.length;\n\t    \n\t    require((_index >= 0) && (_index < __current_number_of_notices));\n\t    \n\t    Notice storage __notice = notices[_index];\n\t    \n        _notice_type = __notice.notice_type;\n        _title = __notice.title;\n        _json_content = __notice.json_content;\n        _referenceID = __notice.referenceID;\n    }\n\t\n}\n",
  "sourcePath": "/home/frederic/home/p2pmoney-dev/var/lib/git/repos/solidity/ethereum_public_notices_dapp/contracts/PublicNoticeBook.sol",
  "compiler": {
    "name": "solc",
    "version": "0.4.24+commit.e67f0147.Emscripten.clang"
  },
  "schemaVersion": "2.0.0",
  "updatedAt": "2018-06-21T09:17:52.953Z"
}